:020000040800F2
:1000000000000220C13500084128000843280008EC
:10001000452800084728000849280008000000007B
:100020000000000000000000000000004B28000855
:100030004D280008000000004F2800085128000843
:100040001136000811360008113600081136000874
:100050001136000811360008113600081136000864
:100060001136000811360008113600081136000854
:100070001136000811360008113600081136000844
:100080001136000811360008113600081136000834
:100090001136000811360008113600081136000824
:1000A0001136000811360008113600081136000814
:1000B0001136000811360008113600081136000804
:1000C00011360008113600081136000811360008F4
:1000D00011360008113600081136000811360008E4
:1000E00011360008113600081136000811360008D4
:1000F00011360008113600081136000811360008C4
:1001000011360008113600081136000811360008B3
:1001100011360008113600081136000811360008A3
:100120001136000811360008113600081136000893
:100130001136000811360008113600081136000883
:100140001136000811360008113600081136000873
:100150001136000811360008113600081136000863
:100160001136000811360008113600081136000853
:100170001136000811360008113600081136000843
:100180001136000811360008113600081136000833
:100190001136000800000000113600081136000872
:1001A0001136000811360008113600081136000813
:1001B0001136000811360008113600081136000803
:1001C00011360008113600081136000811360008F3
:0801D000113600081136000889
:1001E000044B05481B1A062B02D9044B03B11847D0
:1001F000704700BF5F1500205C1500200000000064
:1002000005490648091A891001EBD171491002D03D
:10021000034B03B1184770475C1500205C150020A4
:100220000000000010B5064C237843B9FFF7D8FF53
:10023000044B13B10448AFF300800123237010BDB9
:100240005C150020000000008C6D000808B5084B0C
:100250001BB108490848AFF300800848036813B988
:10026000BDE80840CCE7064B002BF9D09847F7E7EC
:1002700000000000601500208C6D00085C15002057
:100280000000000070B50F4E0F4D761BB61018BF62
:10029000002405D0013455F8043B9847A642F9D113
:1002A0000A4E0B4D761B06F071FDB61018BF0024E8
:1002B00006D0013455F8043B9847A642F9D170BDE9
:1002C00070BD00BFD83C0308D83C0308DC3C0308E1
:1002D000D83C0308844641EA000313F003036DD1C0
:1002E000403A41D351F8043B40F8043B51F8043BF9
:1002F00040F8043B51F8043B40F8043B51F8043B00
:1003000040F8043B51F8043B40F8043B51F8043BEF
:1003100040F8043B51F8043B40F8043B51F8043BDF
:1003200040F8043B51F8043B40F8043B51F8043BCF
:1003300040F8043B51F8043B40F8043B51F8043BBF
:1003400040F8043B51F8043B40F8043B51F8043BAF
:1003500040F8043B51F8043B40F8043B51F8043B9F
:1003600040F8043B403ABDD2303211D351F8043B3F
:1003700040F8043B51F8043B40F8043B51F8043B7F
:1003800040F8043B51F8043B40F8043B103AEDD2EE
:100390000C3205D351F8043B40F8043B043AF9D23F
:1003A000043208D0D2071CBF11F8013B00F8013B12
:1003B00001D30B8803806046704700BF082A13D31F
:1003C0008B078DD010F003038AD0C3F10403D21A37
:1003D000DB071CBF11F8013B00F8013B80D331F86B
:1003E000023B20F8023B7BE7043AD9D3013A11F8EB
:1003F000013B00F8013BF9D20B7803704B78437056
:100400008B7883706046704770B4860746D0541E60
:10041000002A41D0CAB2034602E014F1FF343BD3B4
:1004200003F8012B9D07F8D1032C2ED9CDB245EA54
:1004300005250F2C45EA054519D903F1100226467A
:10044000103E0F2E42F8105C42F80C5C42F8085C3B
:1004500042F8045C02F11002F2D8A4F1100222F07A
:100460000F0204F00F041032032C13440DD91E4662
:100470002246043A032A46F8045BFAD8221F22F0E7
:1004800003020432134404F003042CB1C9B21C4427
:1004900003F8011B9C42FBD170BC70471446034615
:1004A000C2E700BF0EB410B5044683B018B183692B
:1004B0000BB900F04BFB06A803460190059AA16812
:1004C000204600F009FD03B0BDE8104003B07047BE
:1004D0000FB410B50A4B1C6882B024B1A36913B9DC
:1004E000204600F033FB05A803460190049AA1685A
:1004F000204600F0F1FC02B0BDE8104004B07047A7
:10050000000000202DE9F0410E46804600283ED034
:100510008369002B39D084682F4B9C4243D02F4BEA
:100520009C4256D02E4B9C4208BFD8F80C40A38961
:100530001B073DD52369002B3AD0013EA36816F86E
:10054000015F013BA360B5B1002B04DB23685A1C9B
:1005500022601D70F2E7A769BB4222462946404649
:1005600001DB0A2DF2D100F045F80130E6D14FF061
:10057000FF30BDE8F081002B21DB23680A22591CE3
:1005800021601A701046BDE8F08100F0DFFAD8F85B
:100590001830D8F80840002BBED1404600F0D6FAFB
:1005A0000D4B9C42BBD1D8F80440A3891B07C1D492
:1005B0002146404600F080F80028BED0D7E722460A
:1005C00040460A2100F016F80130D0D00A20BDE8DC
:1005D000F081D8F80840AAE7046E0008E46D00082E
:1005E000C46D0008024B01461868FFF78BBF00BFBF
:1005F00000000020F8B50D461446064610B1836988
:10060000002B42D0254B9C4244D0254B9C4243D0EA
:10061000244B9C4208BFF468A389A269A2601A0710
:1006200022D5236903B322686169D31AEDB28B42E4
:100630002F4621DA0133A168501C0139A1602060E6
:10064000157062699A4206D0A389DB0701D50A2D8D
:1006500001D03846F8BD2146304600F03BF900286D
:10066000F7D04FF0FF37F4E72146304600F024F88A
:100670000028F6D12369D6E72146304600F02AF952
:100680000028EED122680123D5E700F05FFA034B82
:100690009C42BAD17468BFE7B468BDE7046E000835
:1006A000E46D0008C46D0008024B0A460146186854
:1006B000FFF7A0BF00000020384B70B51D6806464C
:1006C0000C4615B1AB69002B42D0354B9C4245D04E
:1006D000344B9C4258D0344B9C4208BFEC68B4F970
:1006E0000C2093B219070CD52069A8B113F00102B0
:1006F0001ED0636900225B42A361A260F0B10020BA
:1007000070BDDD0642D558072AD4206942F008039F
:10071000A3819BB20028E9D103F42072B2F5007FD7
:10072000E4D03046214600F0AFFAA3892069DDE726
:10073000990758BF6269A2600028E0D1B4F90C3073
:100740001A06DDD543F04003A3814FF0FF3070BDA2
:10075000284600F0FBF9124B9C42B9D16C68BEE709
:10076000616B51B104F14403994204D0304600F06A
:10077000CFFAB4F90C20002363630023206963607F
:1007800022F024022060C1E7AC68A8E742F04002F2
:10079000092333604FF0FF30A28170BD00000020BC
:1007A000046E0008E46D0008C46D00088B891A0708
:1007B0002DE9F0410D46804633D44A68002A67DDB2
:1007C000EC6A002C45D00022D8F80060C8F8002060
:1007D00013F4805260D06A6D5F0705D569686B6B52
:1007E000521A0BB12B6CD21A0023296A4046A0473B
:1007F000441C39D0AB892A692A60DB044FF000021F
:100800006A6043D4696BC8F8006011B305F1440312
:10081000994202D0404600F07BFA00206863BDE8B0
:10082000F0810E69AEB10C680E6098070CBF4B6981
:100830000023A41B8B600AE023463246AF6A296A74
:100840004046B8470028A4EB0004064404DD002C11
:10085000F2DC0020BDE8F081AB8943F04003AB81BE
:100860004FF0FF30BDE8F081D8F800201D2AF3D802
:10087000174BD340DB4313F00103EDD1A9892C6959
:100880006B60C9042C60BDD5002ABBD16865B9E78F
:100890000A6C002A94DCDCE70123296A4046A04761
:1008A000431C024602D0AB89EC6A95E7D8F80030C9
:1008B000002BF8D01D2B01D0162B02D1C8F80060F8
:1008C000C7E7AB8943F04003AB81BDE8F08100BFCF
:1008D000010040200B6933B310B5044682B008B163
:1008E0008369ABB1114B994219D0114B994218D081
:1008F000104B994208BFE168B1F90C3013B90020E0
:1009000002B010BD204602B0BDE81040FFF74EBF58
:10091000019100F01BF90199044B9942E5D16168FE
:10092000EAE7A168E8E70020704700BF046E00080E
:10093000E46D0008C46D000820B1054B014618683D
:10094000FFF7C8BF034B0449186800F045B900BF62
:1009500000000020C06D0008D50800080020704786
:10096000014900F039B900BFD508000800207047E0
:1009700070B54A1E682505FB02F50E4605F17401A7
:1009800000F00EFA044640B100210C30666005F11B
:1009900068022160A060FFF737FD204670BD00BFF0
:1009A000204B70B51D68AB6906465BB348356B6874
:1009B000AC68013B05D521E0013B5A1C04F16804F9
:1009C0001CD0B4F90C20002AF6D100254FF6FF7296
:1009D0000123E281A38165662560A56065602561CC
:1009E0006561A5612946082204F15C00FFF70CFD52
:1009F0006563A563A564E564204670BD286828B1D9
:100A00000546D4E7284600F00FF8CFE7042130462A
:100A1000FFF7AEFF28600028F2D10C2304463360B4
:100A2000EAE700BFC06D00083D4B3E491A682DE95A
:100A3000F04F90424FF000038364C364036508BF26
:100A4000012383B008BF836181620746FFF7A8FFD7
:100A500078603846FFF7A4FFB8603846FFF7A0FF7C
:100A60007D68F86000240423AB812C606C60AC606E
:100A70006C66EC812C616C61AC61214605F15C0017
:100A80000822FFF7C1FCBE68DFF89CB0DFF89CA02D
:100A9000DFF89C90DFF89C80C5F824B00123092280
:100AA000C5F828A0C5F82C90C5F830802D622146E5
:100AB000F381B28134607460B460746634617461CF
:100AC000B46106F15C0008220193FFF79DFCFD680C
:100AD000366212200222C6F824B0C6F828A0C6F852
:100AE0002C90C6F830802146A881EA812C606C6089
:100AF000AC606C662C616C61AC6105F15C00082235
:100B0000FFF782FC019B2D62C5F824B0C5F828A030
:100B1000C5F82C90C5F83080BB6103B0BDE8F08FFC
:100B2000C06D0008610900084D1500087515000822
:100B3000B1150008D1150008024B0349186800F0F0
:100B40004BB800BFC06D0008D5080008836903B921
:100B50006AE77047704700BF704700BF704700BF2B
:100B6000704700BF024B0349186800F00FB800BF80
:100B7000000000206D090008024B0349186800F0CE
:100B800005B800BF000000205D0900082DE9F04114
:100B900010F148071BD0884600267D68BC68013DDF
:100BA0000FD4A389012B05F1FF3506D9B4F90E3016
:100BB0000133204601D0C04706436B1C04F1680492
:100BC000EFD13F68002FE8D13046BDE8F0813E46C6
:100BD0003046BDE8F08100BF2DE9F84310F1480729
:100BE0001FD0884606464FF000097D68BC68013D6D
:100BF00011D4A389012B05F1FF3508D9B4F90E30C2
:100C000001332146304602D0C04749EA00096B1C37
:100C100004F16804EDD13F68002FE6D14846BDE8F5
:100C2000F883B9464846BDE8F88300BF70B50C4666
:100C3000B1F90E10002990B015461E4613DB01AA2B
:100C400000F0F2FC00280EDB029A02F47042A2F5DA
:100C50000052B2FA82F252094FF4806300203260EF
:100C60002B6010B070BDA38900221B06326004D532
:100C7000402300202B6010B070BD4FF48063002033
:100C80002B6010B070BD00BF8A8992070B4606D555
:100C900001F1470201211A601A6159617047F0B5EC
:100CA00083B001AB6A460C460546FFF7BFFF0099CB
:100CB0000646284600F074F8B4F90C30D0B1019A19
:100CC000124F0099AF6243F08003A381206020613E
:100CD00061611AB93343A38103B0F0BD2846B4F96A
:100CE0000E1000F02DFEB4F90C300028F2D043F0C5
:100CF0000103EFE79A05EFD404F1470243F0020342
:100D00000121A381226022616161E5E76109000898
:100D100091B151F8043C0439002BB8BFC9181F4BDE
:100D20001A68FAB18A4230B40AD908680C18A2428B
:100D300026D04A60196030BC70478B4203D81A46EF
:100D40005368002BF9D1146815198D420DD006D8BF
:100D500008680C189C4219D04B605160EBE70C23DB
:100D60000360E8E74A601960704709680C4411198C
:100D700099421460DFD10ACB0C4453601460DAE767
:100D8000146852684A6020440860D3E71C685B68B6
:100D90004B60204408605160CDE700BF781500200B
:100DA00070B5CC1C24F0030408340C2C38BF0C2480
:100DB000002C06463BDBA14239D8274D296851B1AA
:100DC0000A68121B04D436E01A68121B1AD5194699
:100DD0004B68002BF8D16968002937D0214630468E
:100DE00000F0A2FB431C22D0C31C23F00305A84241
:100DF00005D0291A304600F097FB013017D02C603F
:100E00002B4604E00B2A0DD91A6013441C6003F131
:100E10000B0020F007001A1D821A02D0514299508F
:100E200070BD70BD8B420ED05A684A60EFE70C234C
:100E30003360002070BD0B2A03D84A680B462A6035
:100E4000E5E70B46E0E70A460B46F8E7304600F0D8
:100E50006BFB6860C2E700BF781500209368013B18
:100E6000002B10B4936008DBCCB21368581C1060E0
:100E7000197020465DF8044B70479469A34202DB69
:100E8000CCB20A2CF1D15DF8044BFFF7B3BB00BF25
:100E900093B1F8B514460F460646D51801E0AC42AA
:100EA00008D03A4614F8011B3046FFF7D7FF431C21
:100EB000F5D1F8BD0020F8BD00207047936810B54B
:100EC000144613B95360184610BD00F0C1FB00234F
:100ED000A360636010BD00BF2DE9F04F9DB089464F
:100EE00014460393824618B18369002B00F00A81EF
:100EF0008A4B994500F00C81894B994500F00B8194
:100F0000884B994508BFDAF80C90B9F80C301807EF
:100F100040F1EE80D9F81030002B00F0E98030234A
:100F20008DF82A302378804E0021202209918DF8F7
:100F300029200127002B00F08480252B254603D192
:100F400017E0252B00F0858015F8013F002BF8D124
:100F5000B5EB040B75D022465B4649465046FFF779
:100F600097FF01306DD0099B2A785B440993002AD2
:100F700067D000234FF0FF320135049307930693A7
:100F80008DF853301A93059204E0049A07FA03F39C
:100F90001343049329780522304600F0F9FC2C46CF
:100FA000831B01350028F0D1049BD90644BF2022C1
:100FB0008DF8532021781A0744BF2B228DF8532037
:100FC0002A2969D0A1F13002092A0BD8079B14F80D
:100FD000011F03EB830302EB4303A1F13002092A53
:100FE000F5D907932E293FD0504D0322284600F013
:100FF000CFFC38B1049B401B402202FA00F00343AF
:101000000134049321784A488DF8281006220134CF
:1010100000F0BEFC002849D0464BF3B103AB00936F
:101020004A46454B04A95046AFF300808046B8F1CC
:10103000FF3F06D0099B434409932378002B7FF49C
:101040007CAFB9F80C305B0659D409981DB0BDE8E7
:10105000F08FB5EB040B8CD07DE7039B073323F0B7
:10106000070308330393E5E761782A2904F10100B7
:1010700026D0A1F130020023092A05930446B3D8F3
:1010800014F8011F03EB830302EB4303A1F13002C9
:10109000092AF5D90593A7E7039A116804320029B4
:1010A00003921FDB0791617801349BE703AB009348
:1010B0004A46214B04A9504600F0E6F88046B6E7C0
:1010C000039B1A680592002A03F104030393B8BF37
:1010D0004FF0FF3204F10203AEBFA178A178059270
:1010E0001C4681E7494243F0020307910493DAE783
:1010F00049465046FFF7E0FA00283FF410AF4FF0A2
:10110000FF30A3E7FFF722FD044B99457FF4F4AECF
:10111000DAF80490F9E6DAF80890F6E6046E0008CA
:10112000E46D0008C46D00088C3C0308943C03087F
:10113000983C030800000000910E000810B4044C15
:1011400013460A46014620685DF8044BFFF7C4BE0B
:10115000000000202DE9F0470C4691460A69896895
:10116000DDF820808A42B8BF0A46C9F8002094F80A
:10117000431006461F4611B10132C9F8002023680A
:1011800099065DD5D9F800200232C9F800202368FD
:1011900013F0060F19461DD1E1688A1A002AD8BF3C
:1011A000194617DD04F1190A002505E0E368D9F8AE
:1011B00000209B1AAB420CDD0123524639463046D3
:1011C000C047013005F10105F0D14FF0FF30BDE817
:1011D000F087216894F84330003318BF01238A0652
:1011E0000AD5E1185A1C302081F84300224494F8B3
:1011F000451082F84310023304F143023946304669
:10120000C0470130E1D0236803F00603042B29D046
:10121000A36822699342C8BF4FF0000930DD9B1AD2
:1012200099441A34002501E04D4529D00123224676
:1012300039463046C047013005F10105F4D1C4E715
:1012400013F0060F08D1E168D9F800208A1A002AA5
:10125000D8BF1946A6DCBDE794F84330003318BF69
:101260000123C9E7D9F80010E068A3682269A0EB60
:101270000109934229EAE979D1DCB9F1000FD0D113
:101280000020BDE8F08700BF2DE9F0430C46097E41
:1012900085B06E29064617460C98984604F1430C13
:1012A00055D00FD8632900F01B8100F2D6800029A9
:1012B0005CD0582940F0E88084F845102268DFF8B7
:1012C00060E213E0732900F0FD8000F289806F294D
:1012D00000F0E480702940F0D780226842F02002BC
:1012E00022607823DFF83CE284F845300368150675
:1012F00003F1040100F1FF8055064BBF1B881B68FA
:1013000001600160D00744BF42F020022260002B40
:1013100040F09580226822F02002226010210022F5
:1013200084F843206068A0600028C0F28D802268A5
:1013300022F004022260002B67D1002840F0868052
:10134000654608296FD0ACEB0503236111E02368E3
:101350001A0600F1D38013F0400F0368626903F1AD
:10136000040101601B6814BF1A801A6000236546DF
:101370002361CDF800803B4603AA21463046FFF7A3
:10138000E9FE013021D02A46236939463046C0475C
:1013900001301AD02368E06813F0020F039B19D0C4
:1013A000C21A002A16DD04F11909002504E0E068DC
:1013B000039BC21AAA420DDD01234A463946304634
:1013C000C047013005F10105F1D14FF0FF3005B004
:1013D000BDE8F0839842B8BF184605B0BDE8F08379
:1013E00075295BD078294FD122687AE76168A160BE
:1013F0002D200029C3F1000384F8430021DB22F0F3
:101400000402DFF81CE122600A216546B3FBF1F219
:1014100001FB123013461EF8002005F8012D002BA9
:10142000F4D108298FD12368D9078CD56268236944
:101430009A4288DC302305F8013C013D83E7102106
:101440006DE7DFF8DCE00A21002BDED19EF80030EA
:1014500084F8423004F1420573E7642901D0692918
:1014600012D122680368150603F1040152D455060F
:101470004BBFB3F900301B6801600160002BB5DB86
:10148000DFF89CE00A214DE7012384F84210236134
:1014900004F14205002384F843306AE723681A0602
:1014A00033D413F0400F036803F1040215BF1B8807
:1014B0001B68026002606F2914BF0A210821DFF84F
:1014C00060E02CE703686268191D01601D68002157
:1014D000284600F05DFA00B3401B60602061D9E748
:1014E00003681A68191D0123016004F1420584F89C
:1014F00042202361CEE701601B6803E7036862694D
:10150000191D01601B681A6030E703681A1D02602C
:101510001B68D0E701601B68B0E76068DEE700BFCA
:10152000A03C0308B43C030838B5074C002305462B
:101530000846236000F050FB431C00D038BD2368F0
:10154000002BFBD02B6038BD10BD002010B50C4621
:10155000B1F90E1000F0F8FA002803DB636D0344C4
:10156000636510BDA38923F48053A38110BD00BF20
:10157000002070472DE9F0411646B1F90C201F46B6
:10158000D3050C46054607D500220223B1F90E10FB
:1015900000F0E8F9B4F90C20B4F90E1022F48052EE
:1015A000A2813B4632462846BDE8F04100F014B81F
:1015B00010B50C46B1F90E1000F0D4F9A389421C05
:1015C0000EBF23F4805343F480536065A38110BDA4
:1015D000B1F90E1000F016B870B50D46084C114662
:1015E00006461A4628460023236000F003FB431CEE
:1015F00000D070BD2368002BFBD0336070BD00BFEE
:1016000010BD002038B5074C00230546084623606E
:1016100000F0BAFA431C00D038BD2368002BFBD081
:101620002B6038BD10BD002038B50B46074C054671
:10163000114618460023236000F0AEFA431C00D088
:1016400038BD2368002BFBD02B6038BD10BD0020B7
:101650009368002B73D02DE9F04F8B8983B00C4633
:1016600019070090164626D5226922B313F002000E
:1016700035682CD04FF00009B04FC846B246B84587
:1016800043464A4628BF3B460098B8F1000F50D069
:10169000216AA66AB047002858DDDAF808301B1A1C
:1016A0008144A8EB0008CAF80830002BE7D10020DD
:1016B00003B0BDE8F08F21460098FEF7FDFF00283B
:1016C00040F03381A389356813F00200D2D113F0C2
:1016D000010945D14F46019637B39A05D4F80880E1
:1016E00040F183804745C346C0F0AB8013F4906F50
:1016F00040F0AC802068BA465A46494600F098F956
:10170000A2682368A2EB08025B44A2602360019AEE
:101710009368A3EB0A03D144A7EB0A079360002B5D
:10172000C5D0A389002FD8D1D5F800906F680835AF
:10173000D2E7D5F80090D5F8048008359FE700205F
:10174000704721460098FFF7C5F870B3B4F90C3024
:1017500043F040034FF0FF30A38103B0BDE8F08FAA
:10176000814633464E46A8469A464D464EB380B310
:10177000206823696269B145CB4628BFB3469842C9
:101780005F4604D9A36813449B4500F3A6809345A4
:101790004BDB1346A76A216A00982A46B847071E02
:1017A000D4DDB9EB0709CCD00120DAF80830DB1B17
:1017B0003D44F61BCAF80830002B3FF478AF002EEA
:1017C000D5D108F1080313E9600098460833002ECC
:1017D000F9D032460A21284600F0DAF8002800F055
:1017E000A1800130A0EB0509C2E720682369984277
:1017F00002D863699F425DD2B84528BFB8464246C9
:10180000494600F015F9A3682268A3EB0803424497
:10181000A36022600BB1C24679E721460098FFF72A
:1018200059F8002892D1C24671E75A46294600F07D
:10183000FFF8A2682368A2EB0B025B44A26023605E
:10184000AFE72068B846BA46BB4655E762692068EC
:10185000216902EB4208A0EB010A08EBD8780AF1F3
:1018600001004FEA680838444045424684BF80463C
:1018700042465B0544D511460098FFF791FA83462E
:10188000002855D052462169FEF724FDA38923F490
:10189000906343F08003A3810BEB0A00A8EB0A03DB
:1018A000C4F810B0C4F814802060A360B846BA46EB
:1018B000BB4621E76FF00041B94228BF39464A468E
:1018C00091FBF3F10098A66A03FB01F3216AB0478C
:1018D000B0F1000A3FF71BAF38E71A4629460193DB
:1018E00000F0A6F82268019B00981A442260214665
:1018F000FEF7F0FF019B00287FF428AF1F4650E75A
:10190000009800F0F9F883460028C5D1009D2169B0
:101910002846FFF7FDF9B4F90C300C2223F08003C0
:101920002A6015E706F1010922E74FF0FF30BFE614
:10193000009A0C231360B4F90C3009E700FCFF7F18
:1019400038B5074C002305460846236000F02CF903
:10195000431C00D038BD2368002BFBD02B6038BD62
:1019600010BD002070B50D46084C114606461A46BB
:1019700028460023236000F01FF9431C00D070BDEF
:101980002368002BFBD0336070BD00BF10BD00206A
:1019900001F0FF01102A2BDB10F0070F08D010F820
:1019A000013B013A8B422DD010F0070F42B3F6D124
:1019B000F0B441EA012141EA014122F007047FF03D
:1019C00000070023F0E80256083C85EA010586EA94
:1019D000010685FA47F5A3FA87F586FA47F6A5FAD0
:1019E00087F68EB9EED1F0BC01F0FF0102F00702DC
:1019F00032B110F8013B013A83EA010313B1F8D187
:101A00000020704701387047002D06BF3546033867
:101A1000073815F0010F07D1013015F4807F02BFA0
:101A2000013015F4C03F0130F0BC0138704700BFF1
:101A30008842F0B50DD98B1898420AD28418002A32
:101A400051D0224613F8014D02F8014D9942F9D1C7
:101A5000F0BD0F2A48D941EA00039B0746D100F1A7
:101A6000100401F11003154653F8106C44F8106C83
:101A700053F80C6C44F80C6C53F8086C44F8086C80
:101A8000103D53F8046C44F8046C0F2D03F110035F
:101A900004F11004E8D8A2F1100323F00F0302F0C0
:101AA0000F0E1033BEF1030F1944034421D91E1F3A
:101AB0000D467446043C55F8047B46F8047F032C1D
:101AC000F8D8AEF1040424F0030404342144234480
:101AD00002F0030262B1013B0A4411F8014B03F822
:101AE000014F8A42F9D1F0BD0346F3E70346F2E71E
:101AF000F0BD7246EEE700BFF8B51446F9B1C2B1C9
:101B000006460D4600F036F8844201D82846F8BD56
:101B100021463046FFF744F9074670B12246294670
:101B2000FEF7D8FB294630463D46FFF7F1F8284638
:101B3000F8BDFFF7EDF82546E8E70546E6E711466C
:101B4000BDE8F840FFF72CB970B50D46084C1146BA
:101B500006461A4628460023236000F035F8431C49
:101B600000D070BD2368002BFBD0336070BD00BF78
:101B700010BD002051F8040C0028A0F10400BCBFE7
:101B80000B58C018704700BF024B58221A604FF024
:101B9000FF30704710BD0020024B58221A604FF0F2
:101BA000FF30704710BD0020024B58221A60002001
:101BB000704700BF10BD0020024B58221A604FF042
:101BC000FF30704710BD0020024B58221A604FF0C2
:101BD000FF30704710BD0020044A05491368002BF0
:101BE00008BF0B4618441060184670478015002047
:101BF00018BD0020024B58221A604FF0FF3070478A
:101C000010BD0020D0B52DED028B374C8AB0B0EE60
:101C1000408A00F075F894F900300133F0EE408A04
:101C20003AD0B0EE480A00F03FF9002834D0DFED9A
:101C30002F7AB4EEE78AF1EE10FA33DCDFED2C7A7E
:101C4000B4EEE78AF1EE10FA26D50423294A009370
:101C500018EE100A00230893019200F099FA94F903
:101C6000003000260027022BCDE90401CDE9020156
:101C7000CDE9066733D0684600F014F900282ED06D
:101C8000089B1BB100F01AF9089B0360DDE906010F
:101C900000F0D2FA08EE900AB0EE680A0AB0BDEC85
:101CA000028BD0BD0323134A009318EE100A0023C1
:101CB0000893019200F06CFA94F90030CDE9040128
:101CC000CDE902012BB90C4B4FF06042CDE9062360
:101CD000D1E70A490020022BCDE90601CBD100F063
:101CE000EDF822230360CBE7640000208071B1424D
:101CF000B5F1CFC2D03C0308FFFFEF470000F07FF3
:101D000010EE103A23F00042B2F1FF4F54D84FEAE0
:101D1000D37154D05348834271DC002B67DB524BA4
:101D20009A4253D9514B9A42514B7AD803EB8103D3
:101D3000D3ED004A93ED027A70EE644AC1F10103DB
:101D40005B1A34EEC70A60EE007A9FED4A4A9FEDB7
:101D50004A5ADFED4A5A9FED4A6ADFED4A6AA7EE1A
:101D6000845AE7EE855AA7EEA56AE7EE866AB0EEDA
:101D7000406AA7EEE66AF0EE006A002B44D020EE3F
:101D8000060A76EEC67A13F17D0F80EE276AF7EE2B
:101D9000006A37EE467A37EE647A36EEC70A59DAC9
:101DA00010EE102A643302EBC353DFED377A00EEF6
:101DB000103A20EE270A704730EE000A7047DFED38
:101DC000337A002918BFB0EE670A7047B2F1465F58
:101DD00013D2DFED2F7A70EE277AF7EE006AF4EE79
:101DE000E67AF1EE10FA08DD30EE260A7047294B4C
:101DF0009A4294D99FED250A70470023A3E79FEDEF
:101E0000240A20EE000A704760EE067A76EE666AD3
:101E1000B7EE006A87EEA67A37EE400A36EE400A41
:101E2000704703EB81039FED1C7AD3ED047A9FED9D
:101E30001B6ADFED1B6AE0EE077AF0EE404AFDEE2A
:101E4000E77AB8EEE77A17EE903AE7EE464A27EEE1
:101E5000267A76E710EE102A02EBC35300EE103A12
:101E6000704700BF1772B1421872B13E9115853F9D
:101E7000286E00084CBB31330EEADDB555B38A3805
:101E8000610B36BBABAA2A3E0000800D00000000AB
:101E9000CAF24971B5F1CF423BAAB83F8071313FD8
:101EA000D1F717370020704710EE103A23F00040AA
:101EB000B0F1FF4FACBF002001207047014B186804
:101EC000704700BF0000002081F0004102E000BF29
:101ED00083F0004330B54FEA41044FEA430594EAEA
:101EE000050F08BF90EA020F1FBF54EA000C55EA25
:101EF000020C7FEA645C7FEA655C00F0E2804FEAF6
:101F00005454D4EB5555B8BF6D420CDD2C4480EAD7
:101F1000020281EA030382EA000083EA010180EA07
:101F2000020281EA0303362D88BF30BD11F0004F55
:101F30004FEA01314FF4801C4CEA113102D040428B
:101F400061EB410113F0004F4FEA03334CEA1333C6
:101F500002D0524263EB430394EA050F00F0A780DE
:101F6000A4F10104D5F1200E0DDB02FA0EFC22FAD9
:101F700005F2801841F1000103FA0EF2801843FACD
:101F800005F359410EE0A5F120050EF1200E012ABE
:101F900003FA0EFC28BF4CF0020C43FA05F3C018FC
:101FA00051EBE37101F0004507D54FF0000EDCF175
:101FB000000C7EEB00006EEB0101B1F5801F1BD31E
:101FC000B1F5001F0CD349085FEA30004FEA3C0C22
:101FD00004F101044FEA445212F5800F80F09A8018
:101FE000BCF1004F08BF5FEA500C50F1000041EB1C
:101FF000045141EA050130BD5FEA4C0C404141EB20
:10200000010111F4801FA4F10104E9D191F0000F46
:1020100004BF01460020B1FA81F308BF2033A3F1C9
:102020000B03B3F120020CDA0C3208DD02F1140CC0
:10203000C2F10C0201FA0CF021FA02F10CE002F1FB
:102040001402D8BFC2F1200C01FA02F120FA0CFCF4
:10205000DCBF41EA0C019040E41AA2BF01EB04513D
:10206000294330BD6FEA04041F3C1CDA0C340EDC3B
:1020700004F11404C4F1200220FA04F001FA02F37E
:1020800040EA030021FA04F345EA030130BDC4F13C
:102090000C04C4F1200220FA02F001FA04F340EA31
:1020A0000300294630BD21FA04F0294630BD94F0E2
:1020B000000F83F4801306BF81F480110134013DC9
:1020C0004EE77FEA645C18BF7FEA655C29D094EA3A
:1020D000050F08BF90EA020F05D054EA000C04BFB8
:1020E0001946104630BD91EA030F1EBF00210020A3
:1020F00030BD5FEA545C05D14000494128BF41F042
:10210000004130BD14F580043CBF01F5801130BDA5
:1021100001F0004545F0FE4141F470014FF0000030
:1021200030BD7FEA645C1ABF194610467FEA655CE1
:102130001CBF0B46024650EA013406BF52EA033583
:1021400091EA030F41F4002130BD00BF90F0000F71
:1021500004BF0021704730B54FF4806404F13204AD
:102160004FF000054FF0000150E700BF90F0000F66
:1021700004BF0021704730B54FF4806404F132048D
:1021800010F0004548BF40424FF000013EE700BF5D
:1021900042004FEAE2014FEA31014FEA02701FBFED
:1021A00012F07F4393F07F4F81F06051704792F0BF
:1021B000000F14BF93F07F4F704730B54FF4607439
:1021C00001F0004521F0004120E700BF50EA010284
:1021D00008BF704730B54FF000050AE050EA010231
:1021E00008BF704730B511F0004502D5404261EBA1
:1021F00041014FF4806404F132045FEA915C3FF4E2
:10220000DCAE4FF003025FEADC0C18BF03325FEA7A
:10221000DC0C18BF033202EBDC02C2F1200300FA2F
:1022200003FC20FA02F001FA03FE40EA0E0021FA54
:1022300002F11444C1E600BF4FEA4102B2F1E043AB
:1022400024BFB3F5001CDCF1FE5C0DD901F0004C9D
:102250004FEAC0024CEA5070B2F1004F40EB8300ED
:1022600008BF20F00100704711F0804F21D113F119
:102270003872BCBF01F00040704741F480114FEA52
:102280005252C2F11802C2F1200C10FA0CF320FADB
:1022900002F018BF40F001004FEAC1234FEAD323F8
:1022A00003FA0CFC40EA0C0023FA02F34FEA430362
:1022B000CCE77FEA625307D150EA01331EBF4FF0EB
:1022C000FE4040F44000704701F0004040F0FE4006
:1022D00040F40000704700BF00487047A83A030868
:1022E00030B59FB005460C4601F02CFB002C30D0D9
:1022F000002830D07422002101A8FEF785F8174B82
:102300000193174B0293174B0393174B049301F060
:10231000EDF9059001F02CFA0690144B0793072372
:102320008DF8203001F066FA0A9001F0B7FA0B90B0
:102330000F4B0C9301A9284601F0C6FB30B1742263
:1023400001A92046FDF7C6FF012000E000201FB0D4
:1023500030BD0020FBE70020F9E700BFB43A0308D6
:10236000BC3A0308E03A0308FC3A0308643C03085B
:10237000C007290008B501F02DFB08BD00B583B0EA
:1023800000230193042300930123034A01F03EFE3E
:1023900003B05DF804FB00BF9C08002070B582B05C
:1023A00005460E4601F008FF002800F0968002A8BE
:1023B000002340F8043D3246012101F02FF90028A6
:1023C00000F08780464A136843F080431360019B06
:1023D0009360D360434A116841F08041116003F576
:1023E00090619160D160404A116841F08041116074
:1023F00003F5A0619160D1603C4A116841F08041D1
:10240000116003F5923101F580719160D160384A15
:10241000116841F08041116003F5933101F14000F2
:102420009060D160334A116841F08041116003F53A
:102430002D3101F510719160D1602F4A116841F082
:102440008041116003F52E3140319160D1602B4AFB
:10245000116841F08041116003F5333340339360DC
:10246000D360012402A8002340F8043D3246012134
:1024700001F008F900282ED0214B00229A60DA6082
:10248000019B03F5C0601F498860C8601E498B60CE
:10249000CB6003F5C8501D498860C8601C498B603B
:1024A000CB6003F500701B498860C8601A498A60D8
:1024B000CA6003F5B543194A9360D360184A936024
:1024C000D36001200440284601F088FF204002B07C
:1024D00070BD0024C6E70020F4E70020F7E700BF46
:1024E000B4060020D4050020A8050020AC0400207C
:1024F0008C080020CC070020A0070020E006002068
:10250000000900205C060020500500206008002023
:1025100034080020740700204807002088060020A7
:102520007C05002008B501F0EDFF08BD08B529B114
:10253000030AC2B20448FDF7CBFFFEE7020AC1B2AC
:102540000248FDF7C5FFF8E7043C0308383C0308E0
:1025500030B58DB005460C4600212048FFF70EFF30
:1025600010F0FF0F29D11E4B00930123ADF804306A
:10257000ADF80630ADF808301A4A039204950022EF
:10258000059219490691ADF81C30ADF81E30ADF832
:1025900020304FF4E94309930A940B9269460F4B9C
:1025A0001868FFF7FBFE58B110490C4B1868FFF78D
:1025B00097FE60B100200DB030BD0D49FFF7B6FFAA
:1025C000064B1868FFF7D6FE0A49FFF7AFFF034B2B
:1025D0001868FFF7CFFE0849FFF7A8FFBCBB002033
:1025E0004004044068CC020040040400C0BB00204A
:1025F000C83B0308DC3B0308EC3B030808B50A4A68
:10260000536B926B186111611946084B1868FFF7FC
:1026100089FF012801D1002008BD044B1868FFF78D
:10262000A9FE0349FFF782FFC0BB0020BCBB00200E
:10263000683C03080023B3F5447F0FD210B499001F
:102640004418074A0A441268226001339BB2B3F56A
:10265000447FF4D300205DF8044B7047002070479E
:102660001009002000239FED0A7A01E00133DBB25C
:10267000092B0BD800EB8302D2ED007AB4EEE77A97
:10268000F1EE10FAF2D5B0EE677AEFE7012070476D
:1026900000401CC608B50448FDF7A4FFFFF71CFE68
:1026A0000249FFF755FF08BD443B03083C160020D4
:1026B00008B51548FDF796FF144B1B6813B3144B70
:1026C0001B6BB3F1011F10D00020142363F307002C
:1026D000202363F31F200F49FFF728FF0E490F48FF
:1026E000FFF78CFF034606E063B90C48FFF7A2FF33
:1026F00003460028F2D0002BF6D10748FFF7B2FFBF
:102700000346F1E708BD00BF643B0308BCBB0020E3
:10271000C0BB0020803B030834BC0020BC8A0020E2
:1027200072B6FEE708B50848084B03600023037142
:102730004371436183610123036200F0BFF800B974
:1027400008BDFFF7EDFF00BFE8BC002000300240ED
:1027500000B595B03822002106A8FDF755FE0023EC
:10276000019302930393049305934FF4007000F0D8
:1027700031FE022306934FF48072099240220A929E
:102780000D930E9308210F911092119312931393AE
:1027900006A800F087F978B90F2301930323029369
:1027A0000023039304930593022101A800F034FC55
:1027B00020B915B05DF804FBFFF7B2FFFFF7B0FFDB
:1027C00080B582B000F020F9FFF7C2FF1A4BDA6C37
:1027D00042F00102DA64DB6C03F001030193019B18
:1027E000164C4FF48073236001256560A5600227B5
:1027F000E76021464FF0904000F00CFD4FF400766A
:1028000026606560A560E76021464FF0904000F0CB
:1028100001FD2A4631464FF0904000F0D5FDFFF70C
:1028200081FFFFF737FFFFF743FF002231464FF0EC
:10283000904000F0C9FDFEE700100240D4BC00202B
:10284000FEE7FEE7FEE7FEE7FEE7704770477047EA
:1028500008B500F0E9F808BD00B583B00B4B1A6E5F
:1028600042F001021A661A6E02F001020092009A0A
:102870009A6D42F080529A659B6D03F080530193EC
:10288000019B00F02DFE03B05DF804FB0010024038
:102890000268094B9A4200D0704782B0A3F50053FA
:1028A0009A6C42F480529A649B6C03F480530193B7
:1028B000019B02B0F0E700BF00300240002838D092
:1028C00010B50446437F1BB30223637723791BBBF8
:1028D0002368194A5A612268936823F018039360A9
:1028E000637913BB23684FF0FF321A612268936843
:1028F00023F0600361690B4393602268936823F0BF
:102900008003A1690B43936001236377002010BD0E
:102910000377FFF7BDFFD7E7E268A168204600F024
:102920000DF80028DCD0012010BD236822691A614F
:10293000DCE70120704700BFB71DC10430B41F247D
:10294000651E3CB105F01F0321FA03F32C4613F07A
:10295000010FF5D0182A27D8DFE802F00D26262629
:102960002626262622262626262626261E26262613
:10297000262626261A0000233BB9046861610068F8
:10298000816821F018010A438260184630BC704704
:10299000062D0BD80023EFE7072D09D80023EBE71E
:1029A0000F2D07D80023E7E70123E5E70123E3E73D
:1029B0000123E1E70123DFE7104B1B680BB901207E
:1029C000704710B504464FF47A70B0FBF3F30C4A2D
:1029D0001068B0FBF3F000F0CFFD68B90F2C01D9FF
:1029E000012010BD002221464FF0FF3000F092FD83
:1029F000044B1C60002010BD012010BD50150020AC
:102A0000581500205415002010B5032000F070FD6B
:102A10000F20FFF7D1FF10B10124204610BD04465E
:102A2000FFF71AFFF9E70000034A13680349096832
:102A30000B441360704700BF0CBD002050150020F0
:102A4000014B1868704700BF0CBD0020124AD368C4
:102A500003F00303D068C0F303100130032B11D03F
:102A60000E4BB3FBF0F30C4AD068C0F3062000FB1A
:102A700003F0094BDB68C3F3416301335B00B0FB38
:102A8000F3F07047064BB3FBF0F3D068C0F30620B9
:102A900000FB03F0EDE700BF001002400024F4004B
:102AA00000127A00002800F0608270B582B00446FF
:102AB000036813F0010F37D0AD4A936803F00C039D
:102AC000D26802F003020C2B23D0082B23D06368BA
:102AD000B3F5803F4ED0B3F5A02F51D0A44B1A6868
:102AE00022F480321A601A6822F480221A60636825
:102AF000002B52D0FFF7A4FF05469D4B1B6813F433
:102B0000003F11D1FFF79CFF401B6428F5D903203B
:102B100032E2032AD9D1964B1B6813F4003F03D04D
:102B20006368002B00F02382236813F0020F65D046
:102B30008F4A936803F00C03D26802F003020C2B57
:102B40003AD0042B3AD0E368002B74D0884A13683B
:102B500043F480731360FFF773FF0546844B1B68D3
:102B600013F4806F42D1FFF76BFF401B0228F5D9A9
:102B7000032001E27E4A136843F480331360B6E712
:102B800003F18043A3F53C331A6842F480221A60B3
:102B90001A6842F480321A60A9E7FFF751FF054630
:102BA000734B1B6813F4003FBED0FFF749FF401B77
:102BB0006428F5D90320DFE1022AC2D16C4B1B68DF
:102BC00013F4806F03D0E368002B00F0D281684AD1
:102BD000536823F0FE43216943EA01635360654B68
:102BE0001868FFF7E9FE48B10120C5E1604A536863
:102BF00023F0FE43216943EA01635360236813F025
:102C0000080F43D0636953B3594AD2F8943043F064
:102C10000103C2F89430FFF713FF0546544BD3F875
:102C2000943013F0020F31D1FFF70AFF401B022846
:102C3000F4D90320A0E14E4A136823F48073136093
:102C4000FFF7FEFE05464A4B1B6813F4806FD5D094
:102C5000FFF7F6FE401B0228F5D903208CE1444A19
:102C6000D2F8943023F00103C2F89430FFF7E8FE65
:102C700005463F4BD3F8943013F0020F06D0FFF710
:102C8000DFFE401B0228F4D9032075E1236813F00E
:102C9000040F00F08680364B9B6D13F0805F39D1B6
:102CA0000123002B38D0324B9A6D42F080529A6546
:102CB0009B6D03F080530193019B01252E4B1B68F4
:102CC00013F4807F2AD0A368012B3BD0052B41D081
:102CD000274BD3F8902022F00102C3F89020D3F8BC
:102CE000902022F00402C3F89020A368002B45D066
:102CF000FFF7A6FE06461E4BD3F8903013F0020FE6
:102D00004ED1FFF79DFE801B41F288339842F2D9E5
:102D1000032031E10023C4E70025CFE7164A1368FA
:102D200043F480731360FFF78BFE0646124B1B685B
:102D300013F4807FC7D1FFF783FE801B0228F5D9EB
:102D4000032019E10A4AD2F8903043F00103C2F897
:102D50009030CAE7064BD3F8902042F00402C3F843
:102D60009020D3F8902042F00102C3F89020BCE7F5
:102D7000001002405415002000700040FFF760FE74
:102D80000646814BD3F8903013F0020F08D0FFF7BE
:102D900057FE801B41F288339842F2D90320EBE0C2
:102DA000E5B9236813F0200F35D0A369E3B1764A63
:102DB000D2F8983043F00103C2F89830FFF740FE94
:102DC0000546714BD3F8983013F0020F23D1FFF76B
:102DD00037FE401B0228F4D90320CDE06A4A936DE8
:102DE00023F080539365DCE7674AD2F8983023F0EC
:102DF0000103C2F89830FFF723FE0546624BD3F873
:102E0000983013F0020F06D0FFF71AFE401B02287D
:102E1000F4D90320B0E0E369002B00F0AC805A4AFB
:102E2000926802F00C020C2A69D0022B1DD0564B7E
:102E30001A6822F080721A60DA6822F00302DA60FF
:102E4000DA6822F0887222F48032DA60FFF7F8FD47
:102E500004464D4B1B6813F0007F4ED0FFF7F0FD8A
:102E6000001B0228F5D9032086E0474A136823F0A7
:102E700080731360FFF7E4FD0546434B1B6813F0B6
:102E8000007F06D0FFF7DCFD401B0228F5D90320A8
:102E900072E03D4AD3683D491940236A606A0138AF
:102EA00043EA0013A06A43EA0023206B400801387C
:102EB00043EA4053606B4008013843EA4063E06AEC
:102EC00043EAC0630B43D360136843F0807313601D
:102ED000D36843F08073D360FFF7B2FD04462A4BFA
:102EE0001B6813F0007F06D1FFF7AAFD001B022824
:102EF000F5D9032040E000203EE000203CE0012B1B
:102F00003CD0214BDB6803F00301226A914201D0DF
:102F1000012031E003F0F002616A0139B2EB011FD8
:102F200001D0012028E003F4FE42A16AB2EB012F98
:102F300001D0012020E003F07842E16AB2EBC16FDA
:102F400001D0012018E003F4C001226B5208013ABD
:102F5000B1EB425F14D103F0C063626B5208013AD7
:102F6000B3EB426F0ED0012006E001207047012034
:102F700002E0012000E0002002B070BD0120FBE76C
:102F80000120F9E70020F7E7001002400C809F01C4
:102F90001E4B9B6803F00C03042B33D01B4B9B6828
:102FA00003F00C03082B2FD0184B9B6803F00C0385
:102FB0000C2B01D000207047144BDA6802F003029A
:102FC000DB68C3F303130133032A11D11048B0FBAC
:102FD000F3F30E4AD068C0F3062000FB03F00B4B5E
:102FE000DB68C3F3416301335B00B0FBF3F0704770
:102FF0000848B0FBF3F3054AD068C0F3062000FB95
:1030000003F0ECE7034870470148704700100240A6
:1030100000127A000024F400002800F0EA80F8B5DD
:103020000446764B1B6803F00F038B420CD2734AA5
:10303000136823F00F030B431360136803F00F03AF
:10304000994201D00120F8BD0D46236813F0010F0D
:1030500061D06368032B15D0022B33D0684B1B68FB
:1030600013F4806F00F0C780FFF792FF654B984222
:1030700035D9634A936823F0F00343F080039360EB
:1030800080272DE05E4B1B6813F0007F01D10120EB
:10309000F8BDFFF7DBFC5B4B98421AD9584B9B6895
:1030A00013F0F00F05D0236813F0020F13D0A368BC
:1030B0009BB9534A936823F0F00343F08003936075
:1030C00080270DE04E4B1B6813F4003FCCD101204C
:1030D000F8BD002704E0002702E0002700E00027F9
:1030E000474A936823F0030361680B439360FFF73B
:1030F000A7FC0646424B9B6803F00C036268B3EBE7
:10310000820F09D0FFF79CFC801B41F28833984264
:10311000F0D90320F8BD0027236813F0020F48D030
:1031200013F0040F04D0364A936843F4E0639360CD
:10313000236813F0080F06D0314A936823F47C53B8
:1031400043F4E06393602E4A936823F0F003A16890
:103150000B439360294B1B6803F00F039D4230D350
:10316000236813F0040F06D0254A936823F4E06324
:10317000E1680B439360236813F0080F07D0204ADF
:10318000936823F46053216943EAC1039360FFF716
:10319000FFFE1B4B9B68C3F303131B4AD35C03F076
:1031A0001F03D840194B1860194B1868FFF704FC2F
:1031B000F8BD002FCED0124A936823F0F00393603D
:1031C000C8E70E4A136823F00F032B431360FFF781
:1031D00037FC0646094B1B6803F00F039D42BFD026
:1031E000FFF72EFC801B41F288339842F2D903206E
:1031F000F8BD012070470120F8BD00BF002002404B
:103200000010024000B4C404783C030858150020A4
:1032100054150020F0B583B0002394E085684FEA90
:10322000430E032707FA0EF725EA0705CE6806FACC
:103230000EF635438560456825EA04044D68C5F3FC
:1032400000159D402C434460C6685F000324BC40C9
:10325000E44326408D68BD402E43C6604D68022D74
:1032600000F08580122D00F0828005682C404D68AA
:1032700005F00305BD402C4304604C6814F0805FEA
:1032800060D04D4C256E45F001052566246E04F096
:1032900001040194019C9D08AE1C484C54F8264042
:1032A00003F00306B6000F27B74024EA0704B0F185
:1032B000904F74D0424FB84273D007F58067B84240
:1032C00071D007F58067B8426FD007F58067B842C4
:1032D0006DD007F58067B8425FD0062707FA06F67B
:1032E00034430235354E46F82540364C2568D443E4
:1032F00005EA04064F6817F4803F01D042EA05064C
:10330000304D2E606D6804EA05064F6817F4003FE3
:1033100001D042EA05062B4D6E60AD6804EA050651
:103320004F6817F4801F01D042EA0506254DAE60B4
:10333000ED682C404E6816F4001F01D042EA0504E7
:10334000204AD46001330A6832FA03F431D00124F0
:103350009C402240F6D04D686E1E012E7FF65EAF77
:10336000112D3FF45BAF122D7FF46EAF56E74FEA9D
:10337000D30E0EF1080E50F82E5003F0070C4FEA52
:103380008C0C0F2606FA0CF625EA06050E6906FADD
:103390000CF6354340F82E5067E705279EE70027D7
:1033A0009CE701279AE7022798E7032796E7042777
:1033B00094E703B0F0BD00BF0010024000000140E0
:1033C00000040048000401400AB98162704781612D
:1033D00070470000002836D13E4B1B6803F4C063E1
:1033E000B3F5806F08D03B4AD2F8803023F4807365
:1033F000C2F8803000207047364AD2F8803023F47B
:103400008073C2F88030136823F4C06343F4007300
:103410001360314B1A68322303FB02F32F4AA2FBDD
:1034200003239B0C013300E0013B2A4A526912F44A
:10343000806F01D0002BF7D1264B5B6913F4806FAE
:1034400044D003207047B0F5007F08D0214A1368AC
:1034500023F4C06343F480631360002070471D4B66
:103460001B6803F4C063B3F5806F08D0194AD2F823
:10347000803043F48073C2F8803000207047154AD2
:10348000D2F8803043F48073C2F88030136823F49C
:10349000C06343F4007313600F4B1A68322303FBBD
:1034A00002F30E4AA2FB03239B0C013300E0013B15
:1034B000084A526912F4806F01D0002BF7D1054BF6
:1034C0005B6913F4806F03D00320704700207047BE
:1034D00000207047007000405815002083DE1B4319
:1034E000024A936843F48043936070470070004041
:1034F000074AD36823F4E0631B041B0C000200F4AA
:10350000E060184340F0BF6040F40030D060704786
:1035100000ED00E030B4164BDB68C3F30223C3F1C7
:103520000704042C28BF04241D1D062D17D9033BB6
:10353000012505FA04F4013C2140994005FA03F302
:10354000013B1340194300280BDB0901C9B200F10C
:10355000604000F5614080F8001330BC70470023E4
:10356000E6E700F00F000901C9B2024B1954F4E775
:1035700000ED00E014ED00E00138B0F1807F0AD2E8
:10358000064B5860F021064A82F82310002098600C
:1035900007221A6070470120704700BF10E000E06A
:1035A00000ED00E0054BD3F8882042F47002C3F828
:1035B00088204FF000629A60704700BF00ED00E085
:1035C0000D4885460D480E490E4A002302E0D458A6
:1035D000C4500433C4188C42F9D30B4A0B4C00235B
:1035E00001E013600432A242FBD3FFF7DBFFFCF7DC
:1035F00049FEFFF7E5F8FEE700000220000000208A
:103600005C150020E03C03085C15002014BD002080
:10361000FEE7000001207047704700BF32B1126919
:1036200022B110B121B90846704770471046704763
:1036300070B4134B15689D4207D00260A1F10100E0
:10364000B0FA80F0400970BC70475468AC4202F197
:10365000040211D0031F1646002003E056F8044F61
:10366000AC4209D00130814243F8044FF6D152F800
:103670002120034B9A4201D00020E4E70120E2E739
:10368000DECAFAA132B1926A22B110B121B908465C
:10369000704770471046704770B4134B15689D42D1
:1036A00007D00260A1F10100B0FA80F0400970BCBF
:1036B00070475468AC4202F1040211D0031F164651
:1036C000002003E056F8044FAC4209D0013081429B
:1036D00043F8044FF6D152F82120034B9A4201D00F
:1036E0000020E4E70120E2E7DECAFAA108B5174AA4
:1036F000136823F001031360FFF78CFF144B1B6862
:1037000003F4E063B3F5806F0DD0124B01221A6011
:103710001A68002AFCD1104B104A1A601A68104B24
:103720009A420ED0FEE70F4B01221A601A68002A57
:10373000FCD10D4B094A1A601A68094B9A4200D015
:10374000FEE7FFF769FF094808BD00BF002000E061
:10375000002004E0084C0258004C0258C2A507F4AF
:10376000CDB5E8B50830024000300240643C0308A3
:1037700000B5184A136823F00103136083B0FFF704
:1037800049FF154B1B6803F4E063B3F5806F0DD060
:10379000124B01221A601A68002AFCD1104B114A00
:1037A0001A601A68104B9A420ED0FEE70F4B0122A6
:1037B0001A601A68002AFCD10D4B0A4A1A601A686E
:1037C000094B9A4200D0FEE7FFF726FF072003B01F
:1037D0005DF804FB002000E0002004E0084C0258E3
:1037E000004C0258C2A507F4CDB5E8B50830024038
:1037F0000030024000B5204A136823F00103136033
:1038000083B0FFF707FF1D4B1B6803F4E063B3F5BC
:10381000806F0DD01A4B01221A601A68002AFCD161
:10382000184B194A1A601A68184B9A420ED0FEE7D4
:10383000174B01221A601A68002AFCD1154B124A54
:103840001A601A68114B9A4200D0FEE7FFF7E4FEB7
:10385000114B1B680020DAB262F30700C3F30722A2
:1038600062F30F20C3F3074262F317401B0E63F3AA
:103870001F6003B05DF804FB002000E0002004E0BE
:10388000084C0258004C0258C2A507F4CDB5E8B563
:103890000830024000300240C83C030800B5204A0E
:1038A000136823F00103136083B0FFF7B3FE1D4BD1
:1038B0001B6803F4E063B3F5806F0DD01A4B01224F
:1038C0001A601A68002AFCD1184B194A1A601A6843
:1038D000184B9A420ED0FEE7174B01221A601A6865
:1038E000002AFCD1154B124A1A601A68114B9A42F1
:1038F00000D0FEE7FFF790FE114B1B680020DAB204
:1039000062F30700C3F3072262F30F20C3F30742F9
:1039100062F317401B0E63F31F6003B05DF804FBF6
:10392000002000E0002004E0084C0258004C02583F
:10393000C2A507F4CDB5E8B508300240003002401A
:10394000CC3C030810B5044620B1194B02689A42DA
:1039500018BF0024174A136823F001031360FFF710
:1039600059FE154B1B6803F4E063B3F5806F0DD06F
:10397000124B01221A601A68002AFCD1104B114A1E
:103980001A601A68104B9A420ED0FEE70F4B0122C4
:103990001A601A68002AFCD10D4B0A4A1A601A688C
:1039A000094B9A4200D0FEE7FFF736FE204610BDD5
:1039B0000001C0A1002000E0002004E0084C0258F3
:1039C000004C0258C2A507F4CDB5E8B50830024056
:1039D0000030024010B520B1324B02689A420446D2
:1039E0002ED0314A136823F001031360FFF712FE53
:1039F0002E4B1B6803F4E063B3F5806F0DD02C4BA6
:103A000001221A601A68002AFCD12A4B2A4A1A603D
:103A10001A682A4B9A420DD0FEE7294B01221A6000
:103A20001A68002AFCD1274B234A1A601A68234BD4
:103A30009A4204D1FFF7F0FD41F2100010BDFEE7FD
:103A4000194A136823F001031360FFF7E3FD174BD6
:103A50001B6803F4E063B3F5806F0DD0144B0122B3
:103A60001A601A68002AFCD1124B134A1A601A68AD
:103A7000124B9A420ED0FEE7114B01221A601A68CF
:103A8000002AFCD10F4B0C4A1A601A680B4B9A4261
:103A900000D0FEE7FFF7C0FD04F11000BDE81040C4
:103AA00000F0B0BF0001C0A1002000E0002004E051
:103AB000084C0258004C0258C2A507F4CDB5E8B531
:103AC00008300240003002402DE9F04F83B020B1B1
:103AD000A14B02689A42054630D0A04A136823F0F1
:103AE00001031360FFF796FD9D4B1B6803F4E06331
:103AF000B3F5806F0DD09B4B01221A601A68002A23
:103B0000FCD1994B994A1A601A68994B9A420DD088
:103B1000FEE7984B01221A601A68002AFCD1964BE6
:103B2000924A1A601A68924B9A4206D1FFF774FDC6
:103B30000026304603B0BDE8F08FFEE7874A1368E1
:103B400023F0010313600C46FFF764FD844B1B68F0
:103B500003F4E063B3F5806F0DD0824B01221A604D
:103B60001A68002AFCD1804B804A1A601A68804B80
:103B70009A420ED0FEE77F4B01221A601A68002A93
:103B8000FCD17D4B794A1A601A68794B9A4200D071
:103B9000FEE7FFF741FD002C7CD00023E3666A6B53
:103BA000002A79D00123E36613699A420CD05BB1F5
:103BB000022203E0501C0B4621B10246E26619695D
:103BC0009942F7D1002A67D0AB8D002B00F0D68048
:103BD0002F6B002F00F0D2803B88002B00F0CE80AE
:103BE0007B68002B00F0CA801E68002E00F0C680A3
:103BF0004FF0000841464FF0180B4FF0010A19E052
:103C000049F8381030685060002839D040880028C2
:103C100036D049F80CA05A61388808F10103834274
:103C200098469AB240D2786800283DD050F8236078
:103C3000002E39D0BB68B269D3F8089010685A6872
:103C40000191009203F028F8009A01990BFB08FCFF
:103C500002EB0C0342F80C00A3F804A0F268D2684F
:103C6000DA80F26892681A81F2685268DA60B269A2
:103C70004FEAC80C92681A6109EB0C02002ABFD106
:103C80000022C8E70023638605F1100018221321E3
:103C900000F0BEFE00264CE705F1100018221121AD
:103CA00000F0B6FE002644E7002A67D0BB685B68D8
:103CB00063632286AB8D012BE4D9D5F830800026D2
:103CC00008F10C0A31464FF0010BB3B2BAF1000F04
:103CD0005FD0B8F80C0086425BD2D8F810000028FC
:103CE00057D050F82670002F53D0BB69D8F8142055
:103CF0001868536801910093D2F8089002F0CCFF45
:103D0000182303FB06FE009B019943F80E0003EB0A
:103D10000E0CF000ACF804B0FB68DB68ACF80630C1
:103D2000FB689B68ACF80830FB685B68CCF80C302B
:103D3000BB699B68CCF8103009EB00033BB349F832
:103D400036103F685F6017B37F8807B349F800B04B
:103D5000CCF814300136B8E70001C0A1002000E023
:103D6000002004E0084C0258004C0258C2A507F499
:103D7000CDB5E8B50830024000300240002605F11C
:103D8000100026861822122100F042FED1E6002300
:103D9000DEE7002B3FF477AFDAF808205268A26321
:103DA0006386AB6A6BB1EB8C5BB12B6A0BB1EB8BAF
:103DB0007BB905F110001222112100F029FE002626
:103DC000B7E605F110001322112100F021FE0026B4
:103DD000AFE66B68834A2367136823F0010313601F
:103DE000FFF718FC804B1B6803F4E063B3F5806FAA
:103DF0000DD07E4B01221A601A68002AFCD17C4B40
:103E00007C4A1A601A687C4B9A420ED0FEE77B4BC4
:103E100001221A601A68002AFCD1794B754A1A608F
:103E20001A68754B9A4200D0FEE7FFF7F5FB6D4A22
:103E3000744B2361136823F001031360FFF7EAFB5F
:103E4000694B1B6803F4E063B3F5806F0DD0674BDB
:103E500001221A601A68002AFCD1654B654A1A6073
:103E60001A68654B9A420ED0FEE7644B01221A6035
:103E70001A68002AFCD1624B5E4A1A601A685E4BCF
:103E80009A4200D0FEE7FFF7C7FB564A072363615B
:103E9000136823F001031360FFF7BCFB524B1B6850
:103EA00003F4E063B3F5806F0DD0504B01221A602C
:103EB0001A68002AFCD14E4B4E4A1A601A684E4BC3
:103EC0009A420ED0FEE74D4B01221A601A68002A72
:103ED000FCD14B4B474A1A601A68474B9A4200D0B4
:103EE000FEE7FFF799FB3F4A40F201136362136854
:103EF00023F001031360FFF78DFB3B4B1B6803F4BA
:103F0000E063B3F5806F0DD0384B01221A601A6858
:103F1000002AFCD1364B374A1A601A68364B9A424F
:103F20000ED0FEE7354B01221A601A68002AFCD138
:103F3000334B304A1A601A682F4B9A4200D0FEE782
:103F4000FFF76AFB40F20143A3626B6C2E4AE16B00
:103F5000180E84F82000180C84F821001B0A002099
:103F6000914284F8223084F8230019D0AE6A86B3D7
:103F7000EB8C73B30FCE04F154070FC796E8030020
:103F800087E803002B6ADBB1EA8BCAB11D460FCD6F
:103F90003C340FC495E80300012684E80300C8E51B
:103FA00005F1240393E8030004F1480383E80300C8
:103FB0001C3595E80300403484E803000126B8E589
:103FC00000250FCD3C340FC495E8030084E80300BE
:103FD000FFDE00250FCD54340FC495E8030084E8BC
:103FE0000300FFDE002000E0002004E0084C02583F
:103FF000004C0258C2A507F4CDB5E8B50830024020
:1040000000300240643C0308DECAFAA12DE9F04109
:1040100082B0074616461D469DF820409DF8248034
:10402000FFF7F8FA78B15A4B1B6803F4E063B3F575
:10403000806F02460CD0574B182119601968182957
:1040400034D0FFF7E9FA41F2330002B0BDE8F08165
:10405000514B01211960142101E0013902D0186887
:104060000028FAD14C4B1B68F3B91046FFF7D4FA7D
:104070004A4A136823F001031360FFF7CBFA444B5D
:104080001B6803F4E063B3F5806F15D0414B012248
:104090001A601A68002AFCD1414B424A1A601A6819
:1040A000414B9A4216D0FEE71046CAE7012119603B
:1040B00019680029FCD1D8E7374B01221A601A6829
:1040C000002AFCD1394B374A1A601A68364B9A429B
:1040D00000D0FEE7FFF7A0FAAFB1354B33603E608A
:1040E00000F08EFC90B92D062404302200233B60A2
:1040F000102144EA082300202B4362F30700736475
:1041000061F31F20A1E741F210009EE7234A1368E4
:1041100023F001031360FFF77DFA1D4B1B6803F4C6
:10412000E063B3F5806F0DD01A4B01221A601A6854
:10413000002AFCD11A4B1B4A1A601A681A4B9A4281
:104140000ED0FEE7144B01221A601A68002AFCD137
:10415000164B144A1A601A68134B9A4200D0FEE7B5
:104160002D062404FFF758FA45EA0403B3F1827FD1
:1041700001D00122BAE702A80E4B40F8043D02F03C
:10418000E7FC10B100210A46B3E70222AEE700BF08
:10419000002004E0084C025808300240002000E0F3
:1041A000004C0258C2A507F4CDB5E8B50030024076
:1041B0000001C0A1038404842DE9F04700284DD0FC
:1041C0007C4B02689A42044648D17B4A136823F02C
:1041D000010313600D46FFF71DFA784B1B6803F4CB
:1041E000E063B3F5806F0DD0754B01221A601A6839
:1041F000002AFCD1734B744A1A601A68734B9A42B6
:104200000DD0FEE7724B01221A601A68002AFCD119
:10421000704B6D4A1A601A686C4B9A421DD1FFF7B9
:10422000FBF9002D76D06C4B2A68D5F810C09A4265
:1042300030D0AE6AA94605F11801002E00F0958035
:10424000BCF1000F00F0A480B4F81E80B8F1010F9B
:104250006AD100278C46A78328E0FEE7564A1368F8
:1042600023F001031360FFF7D5F9544B1B6803F4E7
:10427000E063B3F5806F67D0514B01221A601A6872
:10428000002AFCD14F4B504A1A601A684F4B9A4291
:1042900067D0FEE7E18BEB88AF89B5F80E80AA887E
:1042A000D5F808908B423FD1A2839BB14FF0000E0E
:1042B000F24609EB0E060FCE256A75440FC596E847
:1042C000030085E80300E38B0AF1010A9A450EF129
:1042D000180EEED3E38C98452ED1A784B8F1000FC9
:1042E00012D00027BE460CEB07060FCEA56A3D4450
:1042F0000FC596E8030085E80300E38C0EF1010E7C
:104300009E4507F11807EED30323E360204602F031
:1043100049FC06E004F11000112210212C4600F0A7
:1043200077FB2046BDE8F08704F110001222162129
:1043300000F06EFB0024F4E704F1100013221621B4
:1043400000F066FB0024ECE7214B01221A601A689A
:10435000002AFCD11F4B1C4A1A601A681B4B9A4258
:1043600015D1FFF759F90024DBE7288CEA8B6B6A3B
:1043700002FB00F203FB02F3002B3FF461AF04F1F8
:10438000100013221021344600F042FBC9E7FEE77B
:104390002889EA88EB6802FB00F203FB02F3002B9A
:1043A0003FF452AF04F1100012221021644600F0D5
:1043B0002FFBB6E70001C0A1002000E0002004E0D0
:1043C000084C0258004C0258C2A507F4CDB5E8B518
:1043D0000830024000300240DECAFAA138B520B1F0
:1043E0003F4B02689A4204462DD03E4A136823F0A0
:1043F00001031360FFF70EF93B4B1B6803F4E06306
:10440000B3F5806F0DD0394B01221A601A68002A6B
:10441000FCD1374B374A1A601A68374B9A420DD095
:10442000FEE7364B01221A601A68002AFCD1344B91
:10443000304A1A601A68304B9A4203D1FFF7ECF801
:10444000002038BDFEE7274A136823F001031360FC
:10445000FFF7E0F8244B1B6803F4E063B3F5806FCB
:104460000DD0224B01221A601A68002AFCD1204B81
:10447000204A1A601A68204B9A420ED0FEE71F4B62
:1044800001221A601A68002AFCD11D4B194A1A60D1
:104490001A68194B9A4200D0FEE7FFF7BDF8E368AF
:1044A00013F0020511D0204602F090FBE36BA3B19C
:1044B000656B95B1226C2946002098472B69AB4269
:1044C0000BD01D464BB1E36BF4E704F11000102252
:1044D000112100F09DFA284638BD012038BD00BFEB
:1044E0000001C0A1002000E0002004E0084C0258B8
:1044F000004C0258C2A507F4CDB5E8B5083002401B
:10450000003002402DE9F04F85B00D46029204467E
:1045100020B17B4B02689A4218BF0024794A136885
:1045200023F001031360FFF775F8774B1B6803F462
:10453000E063B3F5806F0DD0744B01221A601A68E6
:10454000002AFCD1724B734A1A601A68724B9A4265
:104550000ED0FEE7714B01221A601A68002AFCD1C6
:104560006F4B6C4A1A601A686B4B9A4200D0FEE798
:10457000FFF752F8002C00F08E80A78D002F40F03E
:104580003C82E36803F003034FF0000B032BC4F8F5
:1045900014B040F02B82002D00F0A880002F00F016
:1045A000A5803B88002B00F0A180B5F80490019411
:1045B000D846984580F0B6807B68002B00F0B2802A
:1045C00053F82860002E00F0AD80BB681B68039391
:1045D0004FEA081413EB040A00F08780B5F808E0EE
:1045E000B5F806B0B069D5F80CC041680BFB0EF306
:1045F0000CFB03F399426ED3F368DA685A456AD12B
:104600009A68724567D15B689C4564D1006802F086
:104610009BFBF2687369D268DB6803FB02F3984284
:1046200059D3B369186802F037FB2B68434033F065
:104630007E4346D12B69002B3AD0B5F804B0BBF1CC
:10464000000F2DD0F2687369D168DA6802FB01F2BD
:10465000CAF80820AB8802FB03F2CAF80C202969CB
:10466000CAF804102B691344039A1351B069036804
:10467000D94538BFD9469A0008D4D0E902329B1AEE
:1046800019448160B369DAF80420DA603B8808F1E4
:10469000010818358DE7A346584605B0BDE8F08FF0
:1046A000019C212204F11000122100F0B1F9F3E77E
:1046B000019C172204F1100012219B4600F0A8F97A
:1046C000EAE7019C192204F11000122100F0A0F980
:1046D0004FF0000BE0E7019C182204F110001221BA
:1046E00000F096F94FF0000BD6E7019C04F11000A2
:1046F0001722122100F08CF94FF0000BCCE700BF1D
:104700000001C0A1002000E0002004E0084C025895
:10471000004C0258C2A507F4CDB5E8B508300240F8
:1047200000300240019C029AA38D002A00F0A9806B
:10473000012B40F29B80D4F830A01AF10C0F00F04E
:104740009580BAF80C30002B00F09080029D019407
:104750004FF00008984580F09280DAF81030002B76
:1047600000F08D8053F82860002E00F08880DAF881
:1047700014301B6802934FEA08141F1900F02D81B2
:10478000B5F808E0B5F806B0B069D5F80CC04168D6
:104790000BFB0EF30CFB03F3994266D3F368DA6864
:1047A0005A4562D19A6872455FD15B689C455CD17D
:1047B000006802F0C9FAF2687369D268DB6803FB2B
:1047C00002F3984251D3B369186802F065FA2B6876
:1047D000434033F07E433ED12B69002B32D0B5F8F5
:1047E00004B0BBF1000F25D0F2687369D168DA68B4
:1047F00002FB01F2BA60AB8802FB03F2FA6029699E
:1048000079602B691344029A1351B0690368D94542
:1048100038BFD9469B0007D4D0E902329B1A19440D
:104820008160B3697A68DA60BAF80C3008F101087F
:1048300018358FE7019C212204F11000132100F0AC
:10484000E7F829E7019C172204F1100013219B4689
:1048500000F0DEF820E7019C192204F1100013217A
:1048600000F0D6F84FF0000B16E7019C04F11000A1
:104870001822132100F0CCF84FF0000B0CE7019C3C
:10488000A38DA4F81490002B00F0A480012B256BBD
:1048900040F29E8005F10C07B4F816B0A38A5B4580
:1048A0007FF6FAAE0194002D36D02B88002B33D042
:1048B0006B68002B30D01B684FF00008DBB92BE091
:1048C000D468001B014491609B697268DA60D6E984
:1048D00001315AF809200B44934224BFF368D31ADC
:1048E00073602B8808F10108984515D26B689BB15D
:1048F00053F8283083B1A9689A69D1F800A01468E8
:1049000090684FEA08190AEB0906A4007168D7D528
:10491000B268FBF7DFFCDAE7019802F06FF9002FCD
:1049200047D03B88002B44D07B68002B41D01868CF
:1049300000283ED04FF0000819E05AF809209342B1
:1049400024BFF368D31A73608169D1E90224121B72
:1049500013448B6083697268DA603B8808F1010850
:10496000984526D27B6823B353F8280008B3BB6868
:104970008169D3F800A00C684FEA08190AEB090610
:10498000D6E901C2A4000CEB0203D6D589686046C3
:10499000FBF7A0FCD6E901315AF809200B449342F9
:1049A00024BFF368D31A73603B8808F10108984567
:1049B000D8D3019BB3F816B01A460BF1010B9B8AB2
:1049C0001FFA8BFB5B45A2F816B03FF66CAF63E6AF
:1049D000002761E71D461F465EE7019C172204F190
:1049E0001000132100F014F8BB4655E604F1100046
:1049F0003022112100F00CF84EE6276BC1E500BF14
:104A0000012070470346002200681A60704700BF0B
:104A1000037833B90170036862F31F230360012038
:104A200070470020704700BF704700BF2DE9F04776
:104A3000DDF820C05FEADC0800F0C08001F1080466
:104A40004FEAC8099FED5F7A04EB090E03F12005D8
:104A500014F8076C14F808AC15ED073A15ED085A70
:104A600014F8067C15ED064A15ED056A55ED043A75
:104A700055ED034A55ED025A55ED016A02EB8606E3
:104A8000D6ED007A14F8056C02EB8A0A67EE837A99
:104A90009AED003A14F804ACE3EE057A02EB8707CE
:104AA00002EB860697ED003A96ED005A14F8036C77
:104AB00014F8027CE3EE047A02EB8A0A02EB860623
:104AC0009AED003A96ED004A14F8016CE5EE067A8C
:104AD00002EB870702EB860697ED005A96ED006A17
:104AE000E3EE237A0834A64505F12005E4EE247AA6
:104AF000E5EE257AE6EE267A37EE277AA8D1494404
:104B000003EB48131CF0070C50D00C78D3ED006A6F
:104B100002EB8404D4ED007ABCF1010FA6EEA77A73
:104B200044D04C78D3ED016A02EB8404D4ED007AD2
:104B3000BCF1020FA6EEA77A38D08C78D3ED026ACA
:104B400002EB8404D4ED007ABCF1030FA6EEA77A41
:104B50002CD0CC78D3ED036A02EB8404D4ED007A38
:104B6000BCF1040FA6EEA77A20D00C79D3ED046A2D
:104B700002EB8404D4ED007ABCF1050FA6EEA77A0F
:104B800014D04C79D3ED056A02EB8404D4ED007A9D
:104B9000BCF1060FA6EEA77A08D08979D3ED067A84
:104BA00002EB8102D2ED006AA6EEA77AD0ED007A80
:104BB00037EE877A80ED007ABDE8F0879FED017AC5
:104BC000A0E700BF000000002DE9F04F099F27F08B
:104BD000010C5FEAD70803EB8C0C00F0AE800D1DD2
:104BE0004FEA88099FED567A05EB090E03F1200480
:104BF00015F8046C14ED073A15F803BC54ED083AA7
:104C000014ED064A54ED054A14ED045A54ED035AC6
:104C100014ED026A54ED016A06F00F0A02EB8A0AEB
:104C2000DAED007A15F802AC360902EB860667EE7B
:104C3000837A96ED003A4FEA1B16E3EE237A02EBF5
:104C400086060BF00F0BD6ED003A15F8016CE3EE7B
:104C5000847A02EB8B0B04359BED004A4FEA1A1B5A
:104C6000E4EE247A02EB8B0B0AF00F0ADBED004A2C
:104C7000E4EE857A02EB8A0AAE459AED005A4FEAD5
:104C8000161AE5EE257A02EB8A0A06F00F06DAED2F
:104C9000005AE5EE867A02EB860604F1200496EDD2
:104CA000006AE6EE267A37EE277AA1D1494403EB73
:104CB00048139C452DD90CF1070C03F10805ACEB0A
:104CC000050C2CF0070403F11008A04401F1FF3E8D
:104CD0001EF8014F15ED016A55ED026A04F00F064A
:104CE00002EB86062409D6ED007A02EB840467EE17
:104CF000867A94ED006AE6EE267A0835A84537EE06
:104D0000277AE5D14FEADC0C0CF1010C614403EB8E
:104D1000CC03FC0709D50978D3ED007A0B0902EB27
:104D20008302D2ED006AA6EEA77AD0ED007A37EEC4
:104D3000877A80ED007ABDE8F08F9FED017AB8E7C1
:104D4000000000002DE9F043089F042B00EB8707CB
:104D50000ED0082B0AD1B84208D211F8013B02EB61
:104D600083031B6840F8043B8742F6D8BDE8F08314
:104D7000079B4FEA530C4FEACC090CF1FF3803F0C4
:104D8000010EB842F2D2BCF1000F1AD000F10805B2
:104D90004C1E01EB080614F8013F1B0902EB8303CC
:104DA000A6421B6845F8083C237803F00F0302EB8A
:104DB000830305F108051B6845F80C3CEBD1614401
:104DC0004844BEF1000F03D18742DCD8BDE8F08330
:104DD0000B781B0902EB830301311B68036004306D
:104DE000CFE700BF2DE9F04F2DED108BE1B08369C7
:104DF0001E880AAF002E00F09B8559684A68002A79
:104E000000F09385D2F800C0012E40F28B850A692C
:104E1000002A00F08285D2F80090022E00F08285F0
:104E2000CD69002D00F071852A68C7F8502111F175
:104E3000180204D00A8B012A40F27C856A68A968AE
:104E4000C46BC7F85441DCF818B0D7F85041DCF80F
:104E50000C80D4F80CA0D4F818C0DBF80840C7F8D0
:104E6000B840D8F80440D9F80CE0C7F83C41D8F86D
:104E70000C40C7F89040D8F80840C7F84841DEF821
:104E80000440C7F83841DEF80C40C7F8C040DEF8EF
:104E90000840C7F89440D7F854412468C7F8444103
:104EA000D7F854416468C7F84041D7F85441A56821
:104EB000DAF80440C7F85441DAF80840C7F820414E
:104EC000446D2468C7F83441446D64683C64DCF880
:104ED0000840C7F82841846AC7F83041C46AC7F857
:104EE0004C41C469C7F82441046CBC64846C7C6484
:104EF000C46CC7F8BC40D0E90CBA002A00F0F884B2
:104F000092699268C7F82C218046006A002900F057
:104F1000E4848A69002A00F033854B699B68C7F8EE
:104F2000F030D2E900019368C7F8083101F00CFFB6
:104F3000D8F81830D7F850211E88D2F818C0C7F812
:104F4000F400D8F85810F963B7F84411C7F81811ED
:104F500011FA85F5D7F82011D7F89000D8F8242059
:104F6000C7F8C8200139C7F8501105EB000E1FFA29
:104F70008AF2D7F82051D7F85001DCF80040DCF86D
:104F80000010013A00FB02501FFA8BF2C4F3C61462
:104F9000C7F88C00C1F34151501EB7F84C21C7F837
:104FA000E42044FA01F1B7F84021DCF80040C7F8EA
:104FB000FC20D7F88C20C4F34345D7F85441AEEB1E
:104FC00002021FFA81FED7F8E410B2FBF1F2D7F823
:104FD0005411013C04FB0011C7F88810511CD7F88C
:104FE000C8207C48C7F8AC101146002A08BF01460B
:104FF000D8F84420C7F8C810042DC7F8B42000F032
:105000009E84082D00F09B84D9F81820C7F8B020A2
:10501000032EB7F93421C7F8402140F283845B683E
:105020009B6A002B00F089841B68C7F83431DA686A
:105030009B69D7F8C0009968C7F84C11D7F81811C8
:105040009668C7F844614942C7F81C11002800F06F
:10505000DD82D7F82031D7F85401D7F83C11D7F8C2
:10506000BC509FED5D8A03FB00F2D7F854018C0021
:1050700004FB00F0C7F8D440D7F83841C7F8A400C3
:1050800001FB02FCA200C7F81021D7F89420C7F852
:1050900080C0AB0094460CFB04F204FB03F3D7F88A
:1050A0008040D7F8FC00A400C7F8A840D7F8A44077
:1050B0004FF0000C0FFA8BF5C7F8E0C0A446D7F804
:1050C0002041C7F8E8500FFA8AF5C7F800510CFBE9
:1050D00004FCC7F834C006FB03FCD7F80031C7F85E
:1050E00050C04042C7F8F8009C46D7F84801D7F8AE
:1050F0000031D7F8E840B7F83051C7F8EC5000FB62
:1051000003F30D460CFB04FC7B6204FB05F3C7F8BC
:105110007CC0D7F8EC503B62D7F8D430A646D7F81D
:10512000F84005FB03F57D66254605FB03F5D7F83A
:105130001031BD6600FB01F103FB06F37B658B00BC
:105140003B639300FB648300BB61D7F82831D7F839
:105150001C11D7F8242103F178430024BB630346D4
:1051600003FB01F3C7F8C440D7F8E440C7F8143193
:10517000D10013014FEA820BD7F84021C7F88420F1
:1051800000FB04F0D7F80821F866C7F8A010C7F8AC
:1051900098209A46D7F8AC30002B40F3D081D7F84E
:1051A0001C11D7F81831D7F89020D7F88C000029B7
:1051B0001A44B4BF00210023824228BF0246D7F818
:1051C0002401012800F0F683D7F83C11814200F059
:1051D0002A8203E0294A000800000000D7F84411A1
:1051E000002900F09F81D7F8000193FBF0F100FB4C
:1051F0001131411AD21A91FBF0F500FB1515521B23
:1052000001460244D7F83C01D7F820610446D7F89C
:105210002401B4FBF0F4386A013A92FBF1F8D7F8B4
:105220003821A0EB040CD7F854014FEA840E144641
:10523000D7F82421B4FBF2F2D7F848413A661D446E
:105240000EFB00F00B44A6EB080604FB05F5013B42
:10525000D7F8004193FBF4F300FB06F4D7F85401B0
:105260007D67910000FB03F0C7F89C10F865D7F844
:105270009C30D7F84C01C7F8D840C2EB8271C31AF2
:10528000C2EB4272C7F8CC308B00FB62D300FB61EB
:10529000D7F8FC30C7F8D030D7F8F830C7F8DC3092
:1052A0000023C7E904AB4FEA8C09BB67C246D7F8B5
:1052B0009C30D7F8CC2003EB020CD7F8DC30002B65
:1052C000C0F21C8100207C6FD7F8E88005460646B6
:1052D000D7F8D020D7F84831D7F814111344D7F8AD
:1052E000DC200A44D7F888108B4294BFC6EB030336
:1052F000C6EB010315441B1AA400D7F82C01D7F8FC
:10530000B86004EB8504FD6D0246002808BF6246C4
:1053100008F1FF31D7F8E80091FBF0F12944D7F804
:1053200028510EFB0155D7F83C11034401FB0461E1
:10533000013B93FBF0F67B6AC7F80C1106FB1031BA
:10534000D7F85431D7F824016245B7EE006A08BF98
:10535000B0EE486A9B1B002870D0D7F8D4000EFB33
:1053600003F83B6E00FB01FB002B67D0D7F89C30A5
:10537000D318C7F80431D7F8CC309B1ABB6200238E
:105380003B67D7F80421FB6A1344BB65C7F850316B
:10539000BB6A1344C7F83031D7F85031F3EC017AC7
:1053A000BAF1000FC7F8503167EE867A40F3A48057
:1053B000D7F80C014FF0000C002E19DD002100EB96
:1053C0000E04844210D903462A46B3EC017AF2EC6B
:1053D000016A9C42E6EE877AF7D8C3431C4424F066
:1053E000030404342544204401318E424844E6D16C
:1053F0000CF1010CE24558444544DDD1D7F8502169
:10540000D7F8D8301D44D7F83031E3EC017AC7F82B
:105410003031D7F804319342BED1D7F80C21F96965
:105420003B6F7244C7F80C21BA6D521AC7F80421B9
:10543000D7F8242101339A423B67A2D1D7F8DC1078
:10544000D7F8EC20BB6F08461044D7F8CC10C7F84B
:10545000DC00D7F810010144C7F8CC10D7F8D01001
:105460008A1AC7F8D020D7F8442101339A42BB6783
:105470007FF41DAFD7E904ABD7F83431D7F8442116
:105480009B69002A00F010820024D7F89850D7F8C2
:105490004C61D7F83481D7F80891C7F850419E6025
:1054A000D7F83821D7F8C8402B4641464046A04798
:1054B000D8F81830D7F8F0005968DA68D7F8F4400F
:1054C0000544D7F8100189000644A5EB090C5018D3
:1054D000A445A8BF4D468642D7F8500128BF761A8A
:1054E000D7F8441101308142C7F85001D7D1C7F82D
:1054F0009850C7F84C6119E01A4681E7D7F8E820C0
:10550000D7F8D00090FBF2F302FB1303D31A054641
:1055100093FBF2F002FB10307B6F2E46C41802EBB7
:105520000508D5E6D7F834319B69DA689A60D7F870
:10553000403101331BB2C7F84031D7F8AC30013BE2
:10554000C7F8AC3000F1BF83D7F8B430D7F840418A
:10555000A34200F29D83D7F834219BB29069019356
:10556000D7F8C420D7F8BC80B7F894509B1A1FFA1C
:1055700088F19AB2D7F8B030089305910126B7F8B0
:1055800044300796D7F884600695B7F840500493E6
:10559000641AB1B2B7F848300093CDE9025124B291
:1055A000B7F83831B7F84411C7F84041FC6BA04751
:1055B000D7F8B010D7F81C518A68FC6CD7F8E00017
:1055C0000FFA88F3F31A22442E46D7F8E440D7F8AE
:1055D00018518A6023EAE37326441BB22C1BC7F8D8
:1055E0001841FD6ED7F81441C7F88430D7F8C030A1
:1055F000C7F81C6101302C448342C7F8E000C7F8AB
:1056000014413FF6C7ADD7F834319B69DA689A6028
:10561000D7F8B020D368936007F5AE77BD46BDECF0
:10562000108BBDE8F08FF96F01297FF4D7ADD7F863
:10563000441100293FF476AFD7F82011D7F8546110
:10564000D7F83C01D21A8C1AC7F83021B20002FBFD
:1056500004F2D7F83811B1FBF0F1C1EB81700D46BF
:10566000F962BA62C1EB41718200BA65CA007A6020
:10567000AA00BA6003FB06F2BA67BA6902FB03F339
:105680007B61D7F8FC30C7F80431D7F84C31C7F844
:105690005031D7F8F830C7F80C310023C7F89C30E8
:1056A000D7F80C31002BC0F212810021BB6F0A46E3
:1056B000D7F81441D7F80C01D7F888502044084493
:1056C000D7F80441D7F848110C19AC4228BF2C4632
:1056D000D7F82C518000A41A002D00F0E980D7F8EB
:1056E0002821D7F8506102EB8309D7F85431B5422D
:1056F000F7EE003AA3EB0402A1EB040108BFF0EEC1
:10570000483A2B467D69D7F8B8602844D7F83C5111
:1057100005FB006E0EEB0B008645F86180F0A5805E
:105720009200C7F8D820FA6A01FB0BF1C7F8DC1029
:1057300024F00308002A00F0988008F1FF32B86DC9
:10574000D7F8501192080132014402FB0AF0386682
:1057500010019200FA65CA1A3A61BA6838671344B0
:10576000C7F8D030D7F8D020BB6D1344FB60C7F822
:10577000CC303B6913447B67D7F8CC30F3EC016A3B
:10578000C7F8CC30D7F83031002B66EEA36A57DD6E
:1057900076464FF0000CB8F1000F40F38780D7F841
:1057A000A02009F11003B1180020324602EB0B05CE
:1057B00095ED007A53ED037A92ED004A53ED044AD9
:1057C00091ED005A53ED025A13ED016A67EE277A04
:1057D00001EB0B05E4EE247A0430404595ED007AA8
:1057E000E5EE257A5244514403F11003E7EE067AC0
:1057F00076EEA76ADADB3B6EF86D1E443B6F994488
:10580000A04211DA024633464946D3ED007AB1ECA4
:10581000017A0132A242E7EE276A5B44F5D1201AF1
:1058200009EB800900FB0B66D7F8DC301E44D7F883
:10583000D8309944D7F830310CF1010C6345AAD126
:10584000BB6A99447B6FE3EC016A7B67D7E933233A
:10585000934291D1FB687A689B1AC7F8D030FB69F4
:105860000EF1040E9E45FFF47DAFD7F85021D7F816
:105870001011D7F89C300A44D7F80C11C7F8502102
:105880000846D7F8EC20D7F8041110448A1AC7F854
:105890000421D7F84421C7F80C0101339A42C7F814
:1058A0009C307FF4FDAEE7E5DA683FE60020A7E72D
:1058B000D7F8282102EB8309D7F84831191BD7F80C
:1058C0005431F0EE483A1A1BD7F850311AE7D7F89E
:1058D0000411BB6F0A460B44EAE668B18268C7F858
:1058E00008210122C7F8F010C7F8F420FFF729BB00
:1058F000C7F82C21FFF708BB0122C7F80811C7F829
:10590000F010C7F8F420FFF71CBB183108D02A4666
:10591000C7F850512946FFF793BA9146FFF77DBA71
:10592000CB68FFDE00235B68FFDE9446FFF76CBAAE
:105930007368FFDE0022FFF782BADB68FFDEDCF867
:105940000C20002A3FF460AB032EEBD95B689B6A06
:1059500023B35B6813B39B69DCF80810D3E9013407
:105960000193D7F83C01009073462046FFF7EAF90F
:10597000D8F818307CB1C7F828411E88FFF744BB1F
:1059800078B18168C7F8F0200122C7F80811C7F87C
:10599000F420FFF7D6BA1E88FFF736BB00239B69B9
:1059A000FFDE0122C7F80801C7F8F000C7F8F420AD
:1059B000FFF7C7BAF86F01287FF410ACD21A386B22
:1059C000D7F8B840C7F85021BA6B00FB0141B2F1DB
:1059D000807FC7F8301180F0C481D7F83821002AC1
:1059E0003FF44AADD7F8A42002FB03F3BA6E7B67FD
:1059F0009B1A3B668B18FB65D7F82831C7F80C312A
:105A0000D7F84C31C7F80431C7E90AABD7F82C31C5
:105A1000C7F89C300023C7F8CC30D7F82C31002BC6
:105A200000F03381D7F89C3093ED006A0433C7F857
:105A30009C30D7F84431002B00F00181D7F8FC30BE
:105A4000D7F8482103EB02083B6EC7F8D830FB6D4E
:105A5000C7F8D030D7F80431BB67D7F8F830C7F8AB
:105A6000DC304FF0000BD7F8DC30002BC0F20481A3
:105A7000D7F8D0107A6F0023D7F80C41D7F854012B
:105A800002EB040CD7F84821404594BFC3EB000358
:105A9000C3EB0803A2EB0309D7F83C21C41A03FBAC
:105AA00002F3D7F85021002A40F3E38023F00F05DA
:105AB000D7F8D460681E0009013006FB04F23A678B
:105AC0000201BA6506FB09F94FEA801AF0EE466A50
:105AD0004FF0000E6246002D40F3C98001F14004F2
